{
  "contractName": "IndefiniteSavings",
  "abi": [
    {
      "inputs": [
        {
          "internalType": "contract IERC20",
          "name": "token",
          "type": "address"
        }
      ],
      "stateMutability": "nonpayable",
      "type": "constructor"
    },
    {
      "anonymous": false,
      "inputs": [
        {
          "indexed": false,
          "internalType": "address",
          "name": "sender",
          "type": "address"
        },
        {
          "indexed": false,
          "internalType": "uint256",
          "name": "giveawayFunds",
          "type": "uint256"
        }
      ],
      "name": "LogFundGiveaway",
      "type": "event"
    },
    {
      "anonymous": false,
      "inputs": [
        {
          "indexed": false,
          "internalType": "address",
          "name": "sender",
          "type": "address"
        },
        {
          "indexed": false,
          "internalType": "uint256",
          "name": "depositedValue",
          "type": "uint256"
        },
        {
          "indexed": false,
          "internalType": "uint256",
          "name": "depositTime",
          "type": "uint256"
        },
        {
          "indexed": false,
          "internalType": "uint256",
          "name": "time",
          "type": "uint256"
        }
      ],
      "name": "LogGetDeposit",
      "type": "event"
    },
    {
      "anonymous": false,
      "inputs": [
        {
          "indexed": false,
          "internalType": "address",
          "name": "sender",
          "type": "address"
        },
        {
          "indexed": false,
          "internalType": "uint256",
          "name": "giveawayValue",
          "type": "uint256"
        }
      ],
      "name": "LogGiveaway",
      "type": "event"
    },
    {
      "anonymous": false,
      "inputs": [
        {
          "indexed": false,
          "internalType": "address",
          "name": "sender",
          "type": "address"
        },
        {
          "indexed": false,
          "internalType": "uint256",
          "name": "depositedValue",
          "type": "uint256"
        },
        {
          "indexed": false,
          "internalType": "uint256",
          "name": "depositTime",
          "type": "uint256"
        }
      ],
      "name": "LogNewDeposit",
      "type": "event"
    },
    {
      "anonymous": false,
      "inputs": [
        {
          "indexed": false,
          "internalType": "address",
          "name": "sender",
          "type": "address"
        },
        {
          "indexed": false,
          "internalType": "uint256",
          "name": "fundedValue",
          "type": "uint256"
        }
      ],
      "name": "LogOwnerDeposit",
      "type": "event"
    },
    {
      "anonymous": false,
      "inputs": [
        {
          "indexed": false,
          "internalType": "address",
          "name": "sender",
          "type": "address"
        },
        {
          "indexed": false,
          "internalType": "uint256",
          "name": "withdrawnValue",
          "type": "uint256"
        }
      ],
      "name": "LogOwnerWithdraw",
      "type": "event"
    },
    {
      "anonymous": false,
      "inputs": [
        {
          "indexed": false,
          "internalType": "address",
          "name": "sender",
          "type": "address"
        },
        {
          "indexed": false,
          "internalType": "uint256",
          "name": "giveawayAmount",
          "type": "uint256"
        }
      ],
      "name": "LogWithdrawGiveaway",
      "type": "event"
    },
    {
      "anonymous": false,
      "inputs": [
        {
          "indexed": false,
          "internalType": "address",
          "name": "sender",
          "type": "address"
        },
        {
          "indexed": false,
          "internalType": "uint256",
          "name": "depositedValue",
          "type": "uint256"
        },
        {
          "indexed": false,
          "internalType": "uint256",
          "name": "totalIntrest",
          "type": "uint256"
        },
        {
          "indexed": false,
          "internalType": "uint256",
          "name": "time",
          "type": "uint256"
        }
      ],
      "name": "LogWthDeposit",
      "type": "event"
    },
    {
      "anonymous": false,
      "inputs": [
        {
          "indexed": true,
          "internalType": "address",
          "name": "previousOwner",
          "type": "address"
        },
        {
          "indexed": true,
          "internalType": "address",
          "name": "newOwner",
          "type": "address"
        }
      ],
      "name": "OwnershipTransferred",
      "type": "event"
    },
    {
      "inputs": [],
      "name": "owner",
      "outputs": [
        {
          "internalType": "address",
          "name": "",
          "type": "address"
        }
      ],
      "stateMutability": "view",
      "type": "function"
    },
    {
      "inputs": [],
      "name": "renounceOwnership",
      "outputs": [],
      "stateMutability": "nonpayable",
      "type": "function"
    },
    {
      "inputs": [
        {
          "internalType": "address",
          "name": "newOwner",
          "type": "address"
        }
      ],
      "name": "transferOwnership",
      "outputs": [],
      "stateMutability": "nonpayable",
      "type": "function"
    },
    {
      "inputs": [],
      "name": "getBalance",
      "outputs": [
        {
          "internalType": "uint256",
          "name": "",
          "type": "uint256"
        }
      ],
      "stateMutability": "view",
      "type": "function"
    },
    {
      "inputs": [],
      "name": "getGiveawayPool",
      "outputs": [
        {
          "internalType": "uint256",
          "name": "",
          "type": "uint256"
        }
      ],
      "stateMutability": "view",
      "type": "function"
    },
    {
      "inputs": [],
      "name": "isStaker",
      "outputs": [
        {
          "internalType": "bool",
          "name": "",
          "type": "bool"
        }
      ],
      "stateMutability": "view",
      "type": "function"
    },
    {
      "inputs": [
        {
          "internalType": "uint256",
          "name": "_amount",
          "type": "uint256"
        }
      ],
      "name": "newDeposit",
      "outputs": [],
      "stateMutability": "nonpayable",
      "type": "function"
    },
    {
      "inputs": [],
      "name": "getDeposit",
      "outputs": [],
      "stateMutability": "nonpayable",
      "type": "function"
    },
    {
      "inputs": [],
      "name": "withdrawDeposit",
      "outputs": [],
      "stateMutability": "nonpayable",
      "type": "function"
    },
    {
      "inputs": [
        {
          "internalType": "address",
          "name": "_reciver",
          "type": "address"
        },
        {
          "internalType": "uint256",
          "name": "_value",
          "type": "uint256"
        }
      ],
      "name": "withdrawContractFunds",
      "outputs": [],
      "stateMutability": "nonpayable",
      "type": "function"
    },
    {
      "inputs": [
        {
          "internalType": "uint256",
          "name": "_amount",
          "type": "uint256"
        }
      ],
      "name": "fundContract",
      "outputs": [],
      "stateMutability": "nonpayable",
      "type": "function"
    },
    {
      "inputs": [],
      "name": "giveaway",
      "outputs": [],
      "stateMutability": "nonpayable",
      "type": "function"
    },
    {
      "inputs": [],
      "name": "fundGiveaway",
      "outputs": [],
      "stateMutability": "nonpayable",
      "type": "function"
    },
    {
      "inputs": [],
      "name": "withdrawGiveaway",
      "outputs": [],
      "stateMutability": "nonpayable",
      "type": "function"
    }
  ],
  "bytecode": "0x60806040523480156200001157600080fd5b5060405162001ff138038062001ff1833981810160405281019062000037919062000182565b620000576200004b6200009f60201b60201c565b620000a760201b60201c565b80600360006101000a81548173ffffffffffffffffffffffffffffffffffffffff021916908373ffffffffffffffffffffffffffffffffffffffff1602179055505062000210565b600033905090565b60008060009054906101000a900473ffffffffffffffffffffffffffffffffffffffff169050816000806101000a81548173ffffffffffffffffffffffffffffffffffffffff021916908373ffffffffffffffffffffffffffffffffffffffff1602179055508173ffffffffffffffffffffffffffffffffffffffff168173ffffffffffffffffffffffffffffffffffffffff167f8be0079c531659141344cd1fd0a4f28419497f9722a3daafe3b4186f6b6457e060405160405180910390a35050565b6000815190506200017c81620001f6565b92915050565b6000602082840312156200019557600080fd5b6000620001a5848285016200016b565b91505092915050565b6000620001bb82620001d6565b9050919050565b6000620001cf82620001ae565b9050919050565b600073ffffffffffffffffffffffffffffffffffffffff82169050919050565b6200020181620001c2565b81146200020d57600080fd5b50565b611dd180620002206000396000f3fe608060405234801561001057600080fd5b50600436106100ea5760003560e01c80638da5cb5b1161008c578063cec1e7aa11610066578063cec1e7aa146101c5578063d9bfd0ad146101e3578063f2fde38b146101ed578063f9850b7214610209576100ea565b80638da5cb5b1461017f578063c399ec881461019d578063cd901aa7146101a7576100ea565b80632f0f9db5116100c85780632f0f9db5146101335780633519a2f81461013d5780633f47837214610159578063715018a614610175576100ea565b8063117df088146100ef57806312065fe0146100f95780632e1888b814610117575b600080fd5b6100f7610213565b005b6101016104c2565b60405161010e9190611b4b565b60405180910390f35b610131600480360381019061012c9190611646565b610574565b005b61013b610719565b005b610157600480360381019061015291906116ab565b610838565b005b610173600480360381019061016e91906116ab565b61092e565b005b61017d610b3c565b005b610187610b50565b6040516101949190611910565b60405180910390f35b6101a5610b79565b005b6101af610c0d565b6040516101bc9190611a67565b60405180910390f35b6101cd610c69565b6040516101da9190611b4b565b60405180910390f35b6101eb610c73565b005b6102076004803603810190610202919061161d565b610e2a565b005b610211610eae565b005b61021b610c0d565b506000600560003373ffffffffffffffffffffffffffffffffffffffff1673ffffffffffffffffffffffffffffffffffffffff168152602001908152602001600020905060006228206f606483600001546102769190611bcd565b6102809190611bcd565b8260010154426102909190611c58565b61029a9190611bfe565b82600001546102a99190611b77565b905060004290506000339050600360009054906101000a900473ffffffffffffffffffffffffffffffffffffffff1673ffffffffffffffffffffffffffffffffffffffff1663095ea7b382856040518363ffffffff1660e01b81526004016103129291906119c2565b602060405180830381600087803b15801561032c57600080fd5b505af1158015610340573d6000803e3d6000fd5b505050506040513d601f19601f820116820180604052508101906103649190611682565b50600360009054906101000a900473ffffffffffffffffffffffffffffffffffffffff1673ffffffffffffffffffffffffffffffffffffffff1663a9059cbb82856040518363ffffffff1660e01b81526004016103c29291906119c2565b602060405180830381600087803b1580156103dc57600080fd5b505af11580156103f0573d6000803e3d6000fd5b505050506040513d601f19601f820116820180604052508101906104149190611682565b507fc2e730ca60716d3d4bda3a29c95db71fee6fc5cbd0a35f37c70882e003b511d7338560000154858560405161044e9493929190611a22565b60405180910390a161046a3360016110d490919063ffffffff16565b600560003373ffffffffffffffffffffffffffffffffffffffff1673ffffffffffffffffffffffffffffffffffffffff1681526020019081526020016000206000808201600090556001820160009055505050505050565b6000600360009054906101000a900473ffffffffffffffffffffffffffffffffffffffff1673ffffffffffffffffffffffffffffffffffffffff166370a08231306040518263ffffffff1660e01b815260040161051f9190611910565b60206040518083038186803b15801561053757600080fd5b505afa15801561054b573d6000803e3d6000fd5b505050506040513d601f19601f8201168201806040525081019061056f91906116d4565b905090565b61057c611375565b600360009054906101000a900473ffffffffffffffffffffffffffffffffffffffff1673ffffffffffffffffffffffffffffffffffffffff1663095ea7b383836040518363ffffffff1660e01b81526004016105d99291906119c2565b602060405180830381600087803b1580156105f357600080fd5b505af1158015610607573d6000803e3d6000fd5b505050506040513d601f19601f8201168201806040525081019061062b9190611682565b50600360009054906101000a900473ffffffffffffffffffffffffffffffffffffffff1673ffffffffffffffffffffffffffffffffffffffff1663a9059cbb83836040518363ffffffff1660e01b81526004016106899291906119c2565b602060405180830381600087803b1580156106a357600080fd5b505af11580156106b7573d6000803e3d6000fd5b505050506040513d601f19601f820116820180604052508101906106db9190611682565b507fdc5a7a3d056a12ae5ab76dee48f2b3a518e8150e1a4083385eb928400c5dbe7a828260405161070d9291906119c2565b60405180910390a15050565b610721611375565b600360009054906101000a900473ffffffffffffffffffffffffffffffffffffffff1673ffffffffffffffffffffffffffffffffffffffff166323b872dd333069021e19e0c9bab24000006040518463ffffffff1660e01b815260040161078a9392919061192b565b602060405180830381600087803b1580156107a457600080fd5b505af11580156107b8573d6000803e3d6000fd5b505050506040513d601f19601f820116820180604052508101906107dc9190611682565b5069021e19e0c9bab24000006004546107f59190611b77565b6004819055507f2a93293bb22072713f5e973c28eb855efec6b54abe5de997625d418d405187713360045460405161082e9291906119c2565b60405180910390a1565b610840611375565b600360009054906101000a900473ffffffffffffffffffffffffffffffffffffffff1673ffffffffffffffffffffffffffffffffffffffff166323b872dd3330846040518463ffffffff1660e01b815260040161089f93929190611962565b602060405180830381600087803b1580156108b957600080fd5b505af11580156108cd573d6000803e3d6000fd5b505050506040513d601f19601f820116820180604052508101906108f19190611682565b507f603b9e9a07a31322aa0113ed9b5bdb09b5dcd961cfbe3745332292c235e4671133826040516109239291906119c2565b60405180910390a150565b6109423360016113f390919063ffffffff16565b15610982576040517f08c379a000000000000000000000000000000000000000000000000000000000815260040161097990611ac2565b60405180910390fd5b600360009054906101000a900473ffffffffffffffffffffffffffffffffffffffff1673ffffffffffffffffffffffffffffffffffffffff166323b872dd3330846040518463ffffffff1660e01b81526004016109e193929190611962565b602060405180830381600087803b1580156109fb57600080fd5b505af1158015610a0f573d6000803e3d6000fd5b505050506040513d601f19601f82011682018060405250810190610a339190611682565b50600173__AddressSet____________________________63989779e99091336040518363ffffffff1660e01b8152600401610a70929190611b22565b60006040518083038186803b158015610a8857600080fd5b505af4158015610a9c573d6000803e3d6000fd5b505050506000600560003373ffffffffffffffffffffffffffffffffffffffff1673ffffffffffffffffffffffffffffffffffffffff16815260200190815260200160002090508181600001819055504281600101819055507f5e3f6a96f7f52eda84d9890818bd30b454a9e62c696ff4cc914b246464a3b34e3382600001548360010154604051610b30939291906119eb565b60405180910390a15050565b610b44611375565b610b4e60006114ec565b565b60008060009054906101000a900473ffffffffffffffffffffffffffffffffffffffff16905090565b610b81610c0d565b506000600560003373ffffffffffffffffffffffffffffffffffffffff1673ffffffffffffffffffffffffffffffffffffffff16815260200190815260200160002090507f515647beeacadddd57f0e231d53a2d2f5abfe389420c9a579495e19c0cfa79ce338260000154836001015442604051610c029493929190611a22565b60405180910390a150565b6000610c233360016113f390919063ffffffff16565b610c62576040517f08c379a0000000000000000000000000000000000000000000000000000000008152600401610c5990611ae2565b60405180910390fd5b6001905090565b6000600454905090565b610c7b611375565b600360009054906101000a900473ffffffffffffffffffffffffffffffffffffffff1673ffffffffffffffffffffffffffffffffffffffff1663095ea7b3336004546040518363ffffffff1660e01b8152600401610cda9291906119c2565b602060405180830381600087803b158015610cf457600080fd5b505af1158015610d08573d6000803e3d6000fd5b505050506040513d601f19601f82011682018060405250810190610d2c9190611682565b50600360009054906101000a900473ffffffffffffffffffffffffffffffffffffffff1673ffffffffffffffffffffffffffffffffffffffff1663a9059cbb336004546040518363ffffffff1660e01b8152600401610d8c9291906119c2565b602060405180830381600087803b158015610da657600080fd5b505af1158015610dba573d6000803e3d6000fd5b505050506040513d601f19601f82011682018060405250810190610dde9190611682565b506000600454905060006004819055507f58b1131ae8546c40cd7d5ea5f5d232828359834148045ae56daaeea07cd4b8983382604051610e1f9291906119c2565b60405180910390a150565b610e32611375565b600073ffffffffffffffffffffffffffffffffffffffff168173ffffffffffffffffffffffffffffffffffffffff161415610ea2576040517f08c379a0000000000000000000000000000000000000000000000000000000008152600401610e9990611a82565b60405180910390fd5b610eab816114ec565b50565b68056bc75e2d6310000060045411610efb576040517f08c379a0000000000000000000000000000000000000000000000000000000008152600401610ef290611b02565b60405180910390fd5b6000339050600360009054906101000a900473ffffffffffffffffffffffffffffffffffffffff1673ffffffffffffffffffffffffffffffffffffffff1663095ea7b38268056bc75e2d631000006040518363ffffffff1660e01b8152600401610f66929190611999565b602060405180830381600087803b158015610f8057600080fd5b505af1158015610f94573d6000803e3d6000fd5b505050506040513d601f19601f82011682018060405250810190610fb89190611682565b50600360009054906101000a900473ffffffffffffffffffffffffffffffffffffffff1673ffffffffffffffffffffffffffffffffffffffff1663a9059cbb8268056bc75e2d631000006040518363ffffffff1660e01b815260040161101f929190611999565b602060405180830381600087803b15801561103957600080fd5b505af115801561104d573d6000803e3d6000fd5b505050506040513d601f19601f820116820180604052508101906110719190611682565b5068056bc75e2d631000006004546110899190611c58565b6004819055507fd26387d7ad6c42c0c0ec73645748402870894840d435c853421902e04b271bba3368056bc75e2d631000006040516110c9929190611999565b60405180910390a150565b6110de82826113f3565b61111d576040517f08c379a000000000000000000000000000000000000000000000000000000000815260040161111490611ae2565b60405180910390fd5b6000600161112a846115b0565b6111349190611c58565b905060008360000160008473ffffffffffffffffffffffffffffffffffffffff1673ffffffffffffffffffffffffffffffffffffffff1681526020019081526020016000205490508181146112bb5760008460010183815481106111c1577f4e487b7100000000000000000000000000000000000000000000000000000000600052603260045260246000fd5b9060005260206000200160009054906101000a900473ffffffffffffffffffffffffffffffffffffffff169050818560000160008373ffffffffffffffffffffffffffffffffffffffff1673ffffffffffffffffffffffffffffffffffffffff1681526020019081526020016000208190555080856001018381548110611271577f4e487b7100000000000000000000000000000000000000000000000000000000600052603260045260246000fd5b9060005260206000200160006101000a81548173ffffffffffffffffffffffffffffffffffffffff021916908373ffffffffffffffffffffffffffffffffffffffff160217905550505b8360000160008473ffffffffffffffffffffffffffffffffffffffff1673ffffffffffffffffffffffffffffffffffffffff168152602001908152602001600020600090558360010180548061133a577f4e487b7100000000000000000000000000000000000000000000000000000000600052603160045260246000fd5b6001900381819060005260206000200160006101000a81549073ffffffffffffffffffffffffffffffffffffffff0219169055905550505050565b61137d6115c1565b73ffffffffffffffffffffffffffffffffffffffff1661139b610b50565b73ffffffffffffffffffffffffffffffffffffffff16146113f1576040517f08c379a00000000000000000000000000000000000000000000000000000000081526004016113e890611aa2565b60405180910390fd5b565b6000808360010180549050141561140d57600090506114e6565b8173ffffffffffffffffffffffffffffffffffffffff16836001018460000160008573ffffffffffffffffffffffffffffffffffffffff1673ffffffffffffffffffffffffffffffffffffffff16815260200190815260200160002054815481106114a1577f4e487b7100000000000000000000000000000000000000000000000000000000600052603260045260246000fd5b9060005260206000200160009054906101000a900473ffffffffffffffffffffffffffffffffffffffff1673ffffffffffffffffffffffffffffffffffffffff161490505b92915050565b60008060009054906101000a900473ffffffffffffffffffffffffffffffffffffffff169050816000806101000a81548173ffffffffffffffffffffffffffffffffffffffff021916908373ffffffffffffffffffffffffffffffffffffffff1602179055508173ffffffffffffffffffffffffffffffffffffffff168173ffffffffffffffffffffffffffffffffffffffff167f8be0079c531659141344cd1fd0a4f28419497f9722a3daafe3b4186f6b6457e060405160405180910390a35050565b600081600101805490509050919050565b600033905090565b6000813590506115d881611d56565b92915050565b6000815190506115ed81611d6d565b92915050565b60008135905061160281611d84565b92915050565b60008151905061161781611d84565b92915050565b60006020828403121561162f57600080fd5b600061163d848285016115c9565b91505092915050565b6000806040838503121561165957600080fd5b6000611667858286016115c9565b9250506020611678858286016115f3565b9150509250929050565b60006020828403121561169457600080fd5b60006116a2848285016115de565b91505092915050565b6000602082840312156116bd57600080fd5b60006116cb848285016115f3565b91505092915050565b6000602082840312156116e657600080fd5b60006116f484828501611608565b91505092915050565b61170681611c8c565b82525050565b61171581611c8c565b82525050565b61172481611c9e565b82525050565b61173381611cd4565b82525050565b61174281611ce6565b82525050565b6000611755602683611b66565b91507f4f776e61626c653a206e6577206f776e657220697320746865207a65726f206160008301527f64647265737300000000000000000000000000000000000000000000000000006020830152604082019050919050565b60006117bb602083611b66565b91507f4f776e61626c653a2063616c6c6572206973206e6f7420746865206f776e65726000830152602082019050919050565b60006117fb602b83611b66565b91507f34303031207c20596f752061726520616c72656164792061207265676973746560008301527f726564207374616b65722e0000000000000000000000000000000000000000006020830152604082019050919050565b6000611861602f83611b66565b91507f35303031207c20546869732061646472657373206973206e6f7420612072656760008301527f69737465726564207374616b65722e00000000000000000000000000000000006020830152604082019050919050565b60006118c7602083611b66565b91507f39303035207c204e6f2066756e647320696e20676976656177617920706f6f6c6000830152602082019050919050565b8082525050565b61190a81611cca565b82525050565b600060208201905061192560008301846116fd565b92915050565b600060608201905061194060008301866116fd565b61194d60208301856116fd565b61195a604083018461172a565b949350505050565b600060608201905061197760008301866116fd565b61198460208301856116fd565b6119916040830184611901565b949350505050565b60006040820190506119ae60008301856116fd565b6119bb6020830184611739565b9392505050565b60006040820190506119d760008301856116fd565b6119e46020830184611901565b9392505050565b6000606082019050611a0060008301866116fd565b611a0d6020830185611901565b611a1a6040830184611901565b949350505050565b6000608082019050611a3760008301876116fd565b611a446020830186611901565b611a516040830185611901565b611a5e6060830184611901565b95945050505050565b6000602082019050611a7c600083018461171b565b92915050565b60006020820190508181036000830152611a9b81611748565b9050919050565b60006020820190508181036000830152611abb816117ae565b9050919050565b60006020820190508181036000830152611adb816117ee565b9050919050565b60006020820190508181036000830152611afb81611854565b9050919050565b60006020820190508181036000830152611b1b816118ba565b9050919050565b6000604082019050611b3760008301856118fa565b611b44602083018461170c565b9392505050565b6000602082019050611b606000830184611901565b92915050565b600082825260208201905092915050565b6000611b8282611cca565b9150611b8d83611cca565b9250827fffffffffffffffffffffffffffffffffffffffffffffffffffffffffffffffff03821115611bc257611bc1611cf8565b5b828201905092915050565b6000611bd882611cca565b9150611be383611cca565b925082611bf357611bf2611d27565b5b828204905092915050565b6000611c0982611cca565b9150611c1483611cca565b9250817fffffffffffffffffffffffffffffffffffffffffffffffffffffffffffffffff0483118215151615611c4d57611c4c611cf8565b5b828202905092915050565b6000611c6382611cca565b9150611c6e83611cca565b925082821015611c8157611c80611cf8565b5b828203905092915050565b6000611c9782611caa565b9050919050565b60008115159050919050565b600073ffffffffffffffffffffffffffffffffffffffff82169050919050565b6000819050919050565b6000611cdf82611cca565b9050919050565b6000611cf182611cca565b9050919050565b7f4e487b7100000000000000000000000000000000000000000000000000000000600052601160045260246000fd5b7f4e487b7100000000000000000000000000000000000000000000000000000000600052601260045260246000fd5b611d5f81611c8c565b8114611d6a57600080fd5b50565b611d7681611c9e565b8114611d8157600080fd5b50565b611d8d81611cca565b8114611d9857600080fd5b5056fea264697066735822122042e21f0fc03bb55e51b0d490ddd0af4494aab3c75b696dae37ea20f54372afb164736f6c63430008000033",
  "immutableReferences": {},
  "source": "// SPDX-License-Identifier: UNLICNESED\npragma solidity 0.8.0;\n\nimport \"@openzeppelin/contracts/access/Ownable.sol\"; // @dev Library for setting ownership\nimport \"@openzeppelin/contracts/token/ERC20/ERC20.sol\";\nimport \"@openzeppelin/contracts/utils/Context.sol\";\nimport \"@openzeppelin/contracts/token/ERC20/IERC20.sol\";\n/**\n * @notice Key sets with enumeration and delete. Uses mappings for random\n * and existence checks and dynamic arrays for enumeration. Key uniqueness is enforced. \n * @dev Sets are unordered. Delete operations reorder keys. All operations have a \n * fixed gas cost at any scale, O(1). \n * author: Rob Hitchens\n */\n\nlibrary AddressSet {\n    \n    struct Set {\n        mapping(address => uint) keyPointers; // @dev UserStruct\n        address[] keyList; // @dev UserIndex\n    }\n\n\n    /**\n     * @notice insert a key. \n     * @dev duplicate keys are not permitted.\n     * @param self storage pointer to a Set. \n     * @param key value to insert.\n     */    \n    function insert(Set storage self, address key) public {\n        require(!exists(self, key), \"4001 | This address is already a registered staker.\");\n        self.keyPointers[key] = self.keyList.length;\n        self.keyList.push(key);\n    }\n\n    /**\n     * @notice remove a key.\n     * @dev key to remove must exist. \n     * @param self storage pointer to a Set.\n     * @param key value to remove.\n     */    \n    function remove(Set storage self, address key) internal {\n        require(exists(self, key), \"5001 | This address is not a registered staker.\");\n        uint last = count(self) - 1;\n        uint rowToReplace = self.keyPointers[key];\n        if(rowToReplace != last) {\n            address keyToMove = self.keyList[last];\n            self.keyPointers[keyToMove] = rowToReplace;\n            self.keyList[rowToReplace] = keyToMove;\n        }\n        delete self.keyPointers[key];\n       self.keyList.pop();\n    }\n\n    /**\n     * @notice check if a key is in the Set.\n     * @param self storage pointer to a Set.\n     * @param key value to check. \n     * @return bool true: Set member, false: not a Set member.\n     */  \n    function exists(Set storage self, address key) internal view returns(bool) {\n        if(self.keyList.length == 0) return false;\n        return self.keyList[self.keyPointers[key]] == key;\n    }\n      function count(Set storage self) internal view returns(uint) {\n        return(self.keyList.length);\n    }\n}\n\ncontract SavingsToken is Context, ERC20 {\n    constructor() ERC20(\"StakeApp Token\", \"SAT\") {\n        _mint(msg.sender, 100000000 * 10 ** 18);         //adjust the first number to adjust totalSupply\n    }\n\n}\n\ncontract TermSavings is Ownable{\n\n    // @dev Defining the use for AddressSet library\n\n    using AddressSet for AddressSet.Set;\n    AddressSet.Set depositSet;\n\n    IERC20 private _token;\n\n  constructor (IERC20 token)  {\n        _token = token;\n    }\n\n    struct DepositStruct {\n        uint8 plan;\n        uint256 value;                  // @dev struct used for user info here is all information execpt unique ID\n        uint256 depositTime;            \n        uint256 withdrawalTime;         \n        uint256 totalIntrest;\n    }\n\n    mapping(address => DepositStruct) deposits; // @dev used for saving the unique ID which will be the address of the user\n   \n    // @dev defining events which are used for front-end feedback\n\n    event LogNewDeposit(address sender, uint8 plan, uint256 depositedValue, uint256 depositTime, uint256 withdrawalTime, uint256 totalIntrest);\n    event LogRemDeposit(address sender,uint256 withdrawnValue,uint256 depositedValue, uint256 time);\n    event LogWthDeposit(address sender, uint256 depositedValue, uint256 totalIntrest, uint256 time);\n    event LogGetDeposit(address sender,  uint256 depositedValue, uint8 plan, uint256 depositTime, uint256 withdrawalTime,uint256 totalIntrest,  uint256 time);\n    event LogOwnerDeposit(address sender, uint256 fundedValue);\n    event LogOwnerWithdraw(address sender, uint256 withdrawnValue);\n    \n    // @dev a helper function for checking if the address is already a registered staker\n\n    function isStaker () public view returns (bool)  {\n        require(depositSet.exists(msg.sender), \"5001 | This address is not a registered staker.\");\n        return true;\n    }\n\n    // @dev a helper function for returning the contract balance\n\n     function getBalance  () external view returns (uint256) {\n        return _token.balanceOf(address(this)); // balance of the smart contract\n    } \n    \n    // @dev function for starting new savings\n    // @params _plan for choosing the savings plan (1,2,3)\n\n    function newDeposit(uint8 _plan, uint256 _amount) external {\n        require (_plan == 1 || _plan == 2 || _plan == 3, \"5004 | Plan selected is out of range.\"); \n        require(!depositSet.exists(msg.sender), \"4001 | You are already a registered staker.\");\n        \n        _token.transferFrom(msg.sender, address(this), _amount);\n\n        depositSet.insert(msg.sender); \n        DepositStruct storage d = deposits[msg.sender];\n        \n        d.plan = _plan;\n\n        d.depositTime = block.timestamp;\n                \n        d.value = _amount;\n        \n        if (_plan == 1) {\n            d.withdrawalTime = block.timestamp + 60;//7889229; // 3 months, 7889229 UNIX TIMESTAMP {production value}, this value can be changed\n            d.totalIntrest = d.value + ((d.value / 100) * 3);   // to demonstrate the withdrawDeposit function, set this to few seconds    \n        }\n        else if (_plan == 2) {\n            d.withdrawalTime = block.timestamp + 120;//15778458; // 6 months, 15778458 UNIX TIMESTAMP {production value} this value can be changed\n            d.totalIntrest = d.value + ((d.value / 100) * 6); // to demonstrate the withdrawDeposit function, set this to few seconds\n        }\n        else if (_plan == 3) {\n            d.withdrawalTime = block.timestamp + 180;//31556916; // 9 months, 31556916 UNIX TIMESTAMP {production value} this value can be changed\n            d.totalIntrest = d.value + ((d.value / 100) * 9); // to demonstrate the withdrawDeposit function, set this to few seconds\n        }\n        emit LogNewDeposit(msg.sender, _plan, d.value, d.depositTime, d.withdrawalTime, d.totalIntrest);\n    }\n    \n    // @dev a function for terminating savings early\n\n    function stopSavings() external  {\n        \n        isStaker();\n        \n        DepositStruct storage d = deposits[msg.sender];\n        \n        require(block.timestamp < d.withdrawalTime, \"5002 | Your savings term has exipred, please withdraw the funds using the 'withdrawDeposit' function\");\n       \n        address reciver = msg.sender;\n\n        _token.approve(reciver, d.value - ((d.value/100) * 5));\n        _token.transfer(reciver, d.value - ((d.value/100) * 5));\n              \n        emit LogRemDeposit(msg.sender, d.value - ((d.value/100) * 5), d.value, block.timestamp );\n\n        depositSet.remove(msg.sender); \n        delete deposits[msg.sender];\n    }\n    \n    // @dev function for getting the savings details\n\n    function getDeposit() external  {\n        \n        isStaker();\n       \n        DepositStruct storage d = deposits[msg.sender];\n   \n        emit LogGetDeposit(msg.sender, d.value, d.plan, d.depositTime, d.withdrawalTime, d.totalIntrest,  block.timestamp);\n    }\n    \n    // @dev function for withdrawing the savings after the term has expired\n\n    function withdrawDeposit()  external {\n        isStaker();\n   \n        DepositStruct storage d = deposits[msg.sender];\n  \n        require(block.timestamp > d.withdrawalTime , \"5003 | Withdrawal time has not expired yet\");\n\n        address reciver = msg.sender;\n\n        _token.approve(reciver, d.totalIntrest);\n        _token.transfer(reciver, d.totalIntrest);\n            \n        emit LogWthDeposit(msg.sender,d.value, d.totalIntrest,  block.timestamp);\n            \n        depositSet.remove(msg.sender); // This will fail automatically if the key doesn't exist\n        delete deposits[msg.sender];        \n    }\n\n     function withdrawContractFunds (address  _reciver, uint256 _value) external onlyOwner {\n        \n        _token.approve(_reciver, _value);\n        _token.transfer(_reciver, _value);\n\n        emit LogOwnerWithdraw(_reciver, _value);\n    }\n    function fundContract(uint256 _amount) external  onlyOwner {\n\n        _token.transferFrom(msg.sender,address(this), _amount);\n\n        emit LogOwnerDeposit(msg.sender, _amount);\n    }\n    \n         \n}\n\ncontract IndefiniteSavings is Ownable{\n \n    // @dev defining a use for AddressSet library\n\n    using AddressSet for AddressSet.Set;\n    AddressSet.Set depositSet;\n\n    IERC20 private _token;\n    uint256 giveawayPool;\n\n\n    constructor (IERC20 token)  {\n        _token = token;\n    }\n  \n    struct DepositStruct {\n        uint256 value;                  // @dev struct for storing staker data\n        uint256 depositTime;\n    }\n\n    mapping(address => DepositStruct) deposits; // @dev a mapping for storing the address's as the IDs/keys\n\n    // @dev helper function to get the contract\n\n    function getBalance  () external view returns (uint256) {\n       return _token.balanceOf(address(this)); \n    }\n    function getGiveawayPool () external view returns (uint256) {\n        return giveawayPool;\n    }\n\n    // @dev a helper function for checking if the address is already a registered staker\n\n    function isStaker () public view returns(bool) {\n        require(depositSet.exists(msg.sender), \"5001 | This address is not a registered staker.\");\n        return true;\n    }\n\n    // @dev defining events\n\n    event LogWthDeposit (address sender,  uint256 depositedValue,uint256 totalIntrest, uint256 time);\n    event LogNewDeposit (address sender,  uint256 depositedValue, uint256 depositTime);\n    event LogGetDeposit(address sender,  uint256 depositedValue, uint256 depositTime, uint256 time);\n    event LogOwnerDeposit(address sender, uint256 fundedValue);\n    event LogOwnerWithdraw(address sender, uint256 withdrawnValue);\n    event LogGiveaway(address sender, uint256 giveawayValue);\n    event LogFundGiveaway(address sender, uint256 giveawayFunds);\n    event LogWithdrawGiveaway(address sender, uint256 giveawayAmount);\n    // @dev function for starting new savings\n\n    function newDeposit(uint256 _amount) external  {\n       \n        require(!depositSet.exists(msg.sender), \"4001 | You are already a registered staker.\");\n\n        _token.transferFrom(msg.sender,address(this), _amount);\n\n        depositSet.insert(msg.sender); // Note that this will fail automatically if the key already exists.\n       \n        DepositStruct storage d = deposits[msg.sender];\n       \n        d.value = _amount;\n        d.depositTime = block.timestamp;\n       \n        emit LogNewDeposit(msg.sender, d.value, d.depositTime); \n    }\n    function getDeposit()  external  {\n        \n        isStaker();\n               \n        DepositStruct storage d = deposits[msg.sender];\n       \n        emit LogGetDeposit(msg.sender, d.value, d.depositTime, block.timestamp);\n    }\n    function withdrawDeposit() external  {\n\n        isStaker();\n        \n        DepositStruct storage d = deposits[msg.sender];\n        \n        uint256 totalIntrest = d.value + ((block.timestamp - d.depositTime) * ( (d.value / 100) / 2629743)); // @dev calculating total amount for payout, intrest per second\n        \n        uint256 time = block.timestamp;\n     \n        address reciver = msg.sender;\n        _token.approve(reciver, totalIntrest);\n        _token.transfer(reciver, totalIntrest);\n        \n        emit LogWthDeposit (msg.sender, d.value, totalIntrest, time);\n        \n        depositSet.remove(msg.sender);\n        delete deposits[msg.sender];   \n    }\n\n    function withdrawContractFunds (address _reciver, uint256 _value) external  onlyOwner {\n    \n        _token.approve(_reciver, _value);\n        _token.transfer(_reciver, _value);\n        \n        emit LogOwnerWithdraw(_reciver, _value);\n    }\n    function fundContract(uint256 _amount) external  onlyOwner {\n    \n        _token.transferFrom(msg.sender,address(this), _amount);\n        emit LogOwnerDeposit(msg.sender, _amount);       \n    }\n    function giveaway() external {\n        require(giveawayPool >100000000000000000000, \"9005 | No funds in giveaway pool\" );\n        address reciver = msg.sender;\n        _token.approve(reciver,100000000000000000000 );\n        _token.transfer(reciver,100000000000000000000);\n        giveawayPool = giveawayPool - 100000000000000000000;\n\n        emit LogGiveaway(msg.sender, 100000000000000000000);\n    }\n    function fundGiveaway() external onlyOwner {\n        _token.transferFrom(msg.sender, address(this), 10000000000000000000000);\n        giveawayPool = giveawayPool + 10000000000000000000000;\n\n        emit LogFundGiveaway(msg.sender, giveawayPool);\n    }\n    function withdrawGiveaway() external onlyOwner {\n        _token.approve(msg.sender, giveawayPool);\n        _token.transfer(msg.sender, giveawayPool);\n        uint256 withdrawn = giveawayPool;\n        giveawayPool = 0;\n        \n        emit LogWithdrawGiveaway(msg.sender, withdrawn);\n    }\n}",
  "sourcePath": "C:/Users/pavic/Desktop/Goerli redesign/savingsGoerli/truffle/contracts/Savings.sol",
  "compiler": {
    "name": "solc",
    "version": "0.8.0+commit.c7dfd78e.Emscripten.clang"
  },
  "schemaVersion": "3.2.3",
  "updatedAt": "2022-07-25T15:34:24.937Z",
  "devdoc": {
    "kind": "dev",
    "methods": {
      "owner()": {
        "details": "Returns the address of the current owner."
      },
      "renounceOwnership()": {
        "details": "Leaves the contract without owner. It will not be possible to call `onlyOwner` functions anymore. Can only be called by the current owner. NOTE: Renouncing ownership will leave the contract without an owner, thereby removing any functionality that is only available to the owner."
      },
      "transferOwnership(address)": {
        "details": "Transfers ownership of the contract to a new account (`newOwner`). Can only be called by the current owner."
      }
    },
    "version": 1
  },
  "userdoc": {
    "kind": "user",
    "methods": {},
    "version": 1
  }
}