{
  "contractName": "TermSavings",
  "abi": [
    {
      "inputs": [
        {
          "internalType": "contract IERC20",
          "name": "token",
          "type": "address"
        }
      ],
      "stateMutability": "nonpayable",
      "type": "constructor"
    },
    {
      "anonymous": false,
      "inputs": [
        {
          "indexed": false,
          "internalType": "address",
          "name": "sender",
          "type": "address"
        },
        {
          "indexed": false,
          "internalType": "uint256",
          "name": "depositedValue",
          "type": "uint256"
        },
        {
          "indexed": false,
          "internalType": "uint8",
          "name": "plan",
          "type": "uint8"
        },
        {
          "indexed": false,
          "internalType": "uint256",
          "name": "depositTime",
          "type": "uint256"
        },
        {
          "indexed": false,
          "internalType": "uint256",
          "name": "withdrawalTime",
          "type": "uint256"
        },
        {
          "indexed": false,
          "internalType": "uint256",
          "name": "totalIntrest",
          "type": "uint256"
        },
        {
          "indexed": false,
          "internalType": "uint256",
          "name": "time",
          "type": "uint256"
        }
      ],
      "name": "LogGetDeposit",
      "type": "event"
    },
    {
      "anonymous": false,
      "inputs": [
        {
          "indexed": false,
          "internalType": "address",
          "name": "sender",
          "type": "address"
        },
        {
          "indexed": false,
          "internalType": "uint8",
          "name": "plan",
          "type": "uint8"
        },
        {
          "indexed": false,
          "internalType": "uint256",
          "name": "depositedValue",
          "type": "uint256"
        },
        {
          "indexed": false,
          "internalType": "uint256",
          "name": "depositTime",
          "type": "uint256"
        },
        {
          "indexed": false,
          "internalType": "uint256",
          "name": "withdrawalTime",
          "type": "uint256"
        },
        {
          "indexed": false,
          "internalType": "uint256",
          "name": "totalIntrest",
          "type": "uint256"
        }
      ],
      "name": "LogNewDeposit",
      "type": "event"
    },
    {
      "anonymous": false,
      "inputs": [
        {
          "indexed": false,
          "internalType": "address",
          "name": "sender",
          "type": "address"
        },
        {
          "indexed": false,
          "internalType": "uint256",
          "name": "fundedValue",
          "type": "uint256"
        }
      ],
      "name": "LogOwnerDeposit",
      "type": "event"
    },
    {
      "anonymous": false,
      "inputs": [
        {
          "indexed": false,
          "internalType": "address",
          "name": "sender",
          "type": "address"
        },
        {
          "indexed": false,
          "internalType": "uint256",
          "name": "withdrawnValue",
          "type": "uint256"
        }
      ],
      "name": "LogOwnerWithdraw",
      "type": "event"
    },
    {
      "anonymous": false,
      "inputs": [
        {
          "indexed": false,
          "internalType": "address",
          "name": "sender",
          "type": "address"
        },
        {
          "indexed": false,
          "internalType": "uint256",
          "name": "withdrawnValue",
          "type": "uint256"
        },
        {
          "indexed": false,
          "internalType": "uint256",
          "name": "depositedValue",
          "type": "uint256"
        },
        {
          "indexed": false,
          "internalType": "uint256",
          "name": "time",
          "type": "uint256"
        }
      ],
      "name": "LogRemDeposit",
      "type": "event"
    },
    {
      "anonymous": false,
      "inputs": [
        {
          "indexed": false,
          "internalType": "address",
          "name": "sender",
          "type": "address"
        },
        {
          "indexed": false,
          "internalType": "uint256",
          "name": "depositedValue",
          "type": "uint256"
        },
        {
          "indexed": false,
          "internalType": "uint256",
          "name": "totalIntrest",
          "type": "uint256"
        },
        {
          "indexed": false,
          "internalType": "uint256",
          "name": "time",
          "type": "uint256"
        }
      ],
      "name": "LogWthDeposit",
      "type": "event"
    },
    {
      "anonymous": false,
      "inputs": [
        {
          "indexed": true,
          "internalType": "address",
          "name": "previousOwner",
          "type": "address"
        },
        {
          "indexed": true,
          "internalType": "address",
          "name": "newOwner",
          "type": "address"
        }
      ],
      "name": "OwnershipTransferred",
      "type": "event"
    },
    {
      "inputs": [],
      "name": "owner",
      "outputs": [
        {
          "internalType": "address",
          "name": "",
          "type": "address"
        }
      ],
      "stateMutability": "view",
      "type": "function"
    },
    {
      "inputs": [],
      "name": "renounceOwnership",
      "outputs": [],
      "stateMutability": "nonpayable",
      "type": "function"
    },
    {
      "inputs": [
        {
          "internalType": "address",
          "name": "newOwner",
          "type": "address"
        }
      ],
      "name": "transferOwnership",
      "outputs": [],
      "stateMutability": "nonpayable",
      "type": "function"
    },
    {
      "inputs": [],
      "name": "isStaker",
      "outputs": [
        {
          "internalType": "bool",
          "name": "",
          "type": "bool"
        }
      ],
      "stateMutability": "view",
      "type": "function"
    },
    {
      "inputs": [],
      "name": "getBalance",
      "outputs": [
        {
          "internalType": "uint256",
          "name": "",
          "type": "uint256"
        }
      ],
      "stateMutability": "view",
      "type": "function"
    },
    {
      "inputs": [
        {
          "internalType": "uint8",
          "name": "_plan",
          "type": "uint8"
        },
        {
          "internalType": "uint256",
          "name": "_amount",
          "type": "uint256"
        }
      ],
      "name": "newDeposit",
      "outputs": [],
      "stateMutability": "nonpayable",
      "type": "function"
    },
    {
      "inputs": [],
      "name": "stopSavings",
      "outputs": [],
      "stateMutability": "nonpayable",
      "type": "function"
    },
    {
      "inputs": [],
      "name": "getDeposit",
      "outputs": [],
      "stateMutability": "nonpayable",
      "type": "function"
    },
    {
      "inputs": [],
      "name": "withdrawDeposit",
      "outputs": [],
      "stateMutability": "nonpayable",
      "type": "function"
    },
    {
      "inputs": [
        {
          "internalType": "address",
          "name": "_reciver",
          "type": "address"
        },
        {
          "internalType": "uint256",
          "name": "_value",
          "type": "uint256"
        }
      ],
      "name": "withdrawContractFunds",
      "outputs": [],
      "stateMutability": "nonpayable",
      "type": "function"
    },
    {
      "inputs": [
        {
          "internalType": "uint256",
          "name": "_amount",
          "type": "uint256"
        }
      ],
      "name": "fundContract",
      "outputs": [],
      "stateMutability": "nonpayable",
      "type": "function"
    }
  ],
  "bytecode": "0x60806040523480156200001157600080fd5b506040516200219438038062002194833981810160405281019062000037919062000182565b620000576200004b6200009f60201b60201c565b620000a760201b60201c565b80600360006101000a81548173ffffffffffffffffffffffffffffffffffffffff021916908373ffffffffffffffffffffffffffffffffffffffff1602179055505062000210565b600033905090565b60008060009054906101000a900473ffffffffffffffffffffffffffffffffffffffff169050816000806101000a81548173ffffffffffffffffffffffffffffffffffffffff021916908373ffffffffffffffffffffffffffffffffffffffff1602179055508173ffffffffffffffffffffffffffffffffffffffff168173ffffffffffffffffffffffffffffffffffffffff167f8be0079c531659141344cd1fd0a4f28419497f9722a3daafe3b4186f6b6457e060405160405180910390a35050565b6000815190506200017c81620001f6565b92915050565b6000602082840312156200019557600080fd5b6000620001a5848285016200016b565b91505092915050565b6000620001bb82620001d6565b9050919050565b6000620001cf82620001ae565b9050919050565b600073ffffffffffffffffffffffffffffffffffffffff82169050919050565b6200020181620001c2565b81146200020d57600080fd5b50565b611f7480620002206000396000f3fe608060405234801561001057600080fd5b50600436106100a95760003560e01c80638da5cb5b116100715780638da5cb5b14610118578063c399ec8814610136578063c4e043d114610140578063cd901aa71461015c578063e5e564b41461017a578063f2fde38b14610184576100a9565b8063117df088146100ae57806312065fe0146100b85780632e1888b8146100d65780633519a2f8146100f2578063715018a61461010e575b600080fd5b6100b66101a0565b005b6100c0610472565b6040516100cd9190611cee565b60405180910390f35b6100f060048036038101906100eb9190611605565b610524565b005b61010c6004803603810190610107919061166a565b6106c9565b005b6101166107bf565b005b6101206107d3565b60405161012d9190611a3a565b60405180910390f35b61013e6107fc565b005b61015a600480360381019061015591906116bc565b6108af565b005b610164610c57565b6040516101719190611bca565b60405180910390f35b610182610cb3565b005b61019e600480360381019061019991906115dc565b610ffa565b005b6101a8610c57565b506000600460003373ffffffffffffffffffffffffffffffffffffffff1673ffffffffffffffffffffffffffffffffffffffff168152602001908152602001600020905080600301544211610232576040517f08c379a000000000000000000000000000000000000000000000000000000000815260040161022990611c05565b60405180910390fd5b6000339050600360009054906101000a900473ffffffffffffffffffffffffffffffffffffffff1673ffffffffffffffffffffffffffffffffffffffff1663095ea7b38284600401546040518363ffffffff1660e01b8152600401610298929190611a8c565b602060405180830381600087803b1580156102b257600080fd5b505af11580156102c6573d6000803e3d6000fd5b505050506040513d601f19601f820116820180604052508101906102ea9190611641565b50600360009054906101000a900473ffffffffffffffffffffffffffffffffffffffff1673ffffffffffffffffffffffffffffffffffffffff1663a9059cbb8284600401546040518363ffffffff1660e01b815260040161034c929190611a8c565b602060405180830381600087803b15801561036657600080fd5b505af115801561037a573d6000803e3d6000fd5b505050506040513d601f19601f8201168201806040525081019061039e9190611641565b507fc2e730ca60716d3d4bda3a29c95db71fee6fc5cbd0a35f37c70882e003b511d73383600101548460040154426040516103dc9493929190611ab5565b60405180910390a16103f833600161107e90919063ffffffff16565b600460003373ffffffffffffffffffffffffffffffffffffffff1673ffffffffffffffffffffffffffffffffffffffff168152602001908152602001600020600080820160006101000a81549060ff0219169055600182016000905560028201600090556003820160009055600482016000905550505050565b6000600360009054906101000a900473ffffffffffffffffffffffffffffffffffffffff1673ffffffffffffffffffffffffffffffffffffffff166370a08231306040518263ffffffff1660e01b81526004016104cf9190611a3a565b60206040518083038186803b1580156104e757600080fd5b505afa1580156104fb573d6000803e3d6000fd5b505050506040513d601f19601f8201168201806040525081019061051f9190611693565b905090565b61052c61131f565b600360009054906101000a900473ffffffffffffffffffffffffffffffffffffffff1673ffffffffffffffffffffffffffffffffffffffff1663095ea7b383836040518363ffffffff1660e01b8152600401610589929190611a8c565b602060405180830381600087803b1580156105a357600080fd5b505af11580156105b7573d6000803e3d6000fd5b505050506040513d601f19601f820116820180604052508101906105db9190611641565b50600360009054906101000a900473ffffffffffffffffffffffffffffffffffffffff1673ffffffffffffffffffffffffffffffffffffffff1663a9059cbb83836040518363ffffffff1660e01b8152600401610639929190611a8c565b602060405180830381600087803b15801561065357600080fd5b505af1158015610667573d6000803e3d6000fd5b505050506040513d601f19601f8201168201806040525081019061068b9190611641565b507fdc5a7a3d056a12ae5ab76dee48f2b3a518e8150e1a4083385eb928400c5dbe7a82826040516106bd929190611a8c565b60405180910390a15050565b6106d161131f565b600360009054906101000a900473ffffffffffffffffffffffffffffffffffffffff1673ffffffffffffffffffffffffffffffffffffffff166323b872dd3330846040518463ffffffff1660e01b815260040161073093929190611a55565b602060405180830381600087803b15801561074a57600080fd5b505af115801561075e573d6000803e3d6000fd5b505050506040513d601f19601f820116820180604052508101906107829190611641565b507f603b9e9a07a31322aa0113ed9b5bdb09b5dcd961cfbe3745332292c235e4671133826040516107b4929190611a8c565b60405180910390a150565b6107c761131f565b6107d1600061139d565b565b60008060009054906101000a900473ffffffffffffffffffffffffffffffffffffffff16905090565b610804610c57565b506000600460003373ffffffffffffffffffffffffffffffffffffffff1673ffffffffffffffffffffffffffffffffffffffff16815260200190815260200160002090507fa609b57259765355a4bed44df973809ebdbed588e16cb9ecbc98561c420b1b9f3382600101548360000160009054906101000a900460ff16846002015485600301548660040154426040516108a49796959493929190611afa565b60405180910390a150565b60018260ff1614806108c4575060028260ff16145b806108d2575060038260ff16145b610911576040517f08c379a000000000000000000000000000000000000000000000000000000000815260040161090890611c25565b60405180910390fd5b61092533600161146190919063ffffffff16565b15610965576040517f08c379a000000000000000000000000000000000000000000000000000000000815260040161095c90611c65565b60405180910390fd5b600360009054906101000a900473ffffffffffffffffffffffffffffffffffffffff1673ffffffffffffffffffffffffffffffffffffffff166323b872dd3330846040518463ffffffff1660e01b81526004016109c493929190611a55565b602060405180830381600087803b1580156109de57600080fd5b505af11580156109f2573d6000803e3d6000fd5b505050506040513d601f19601f82011682018060405250810190610a169190611641565b50600173__AddressSet____________________________63989779e99091336040518363ffffffff1660e01b8152600401610a53929190611cc5565b60006040518083038186803b158015610a6b57600080fd5b505af4158015610a7f573d6000803e3d6000fd5b505050506000600460003373ffffffffffffffffffffffffffffffffffffffff1673ffffffffffffffffffffffffffffffffffffffff1681526020019081526020016000209050828160000160006101000a81548160ff021916908360ff16021790555042816002018190555081816001018190555060018360ff161415610b4f57603c42610b0e9190611d1a565b8160030181905550600360648260010154610b299190611d70565b610b339190611da1565b8160010154610b429190611d1a565b8160040181905550610c01565b60028360ff161415610ba957607842610b689190611d1a565b8160030181905550600660648260010154610b839190611d70565b610b8d9190611da1565b8160010154610b9c9190611d1a565b8160040181905550610c00565b60038360ff161415610bff5760b442610bc29190611d1a565b8160030181905550600960648260010154610bdd9190611d70565b610be79190611da1565b8160010154610bf69190611d1a565b81600401819055505b5b5b7f0579cbbd16ec74f0d992235da6543b7597dc29b3eb18bf2bc878f948f2aa8fe133848360010154846002015485600301548660040154604051610c4a96959493929190611b69565b60405180910390a1505050565b6000610c6d33600161146190919063ffffffff16565b610cac576040517f08c379a0000000000000000000000000000000000000000000000000000000008152600401610ca390611c85565b60405180910390fd5b6001905090565b610cbb610c57565b506000600460003373ffffffffffffffffffffffffffffffffffffffff1673ffffffffffffffffffffffffffffffffffffffff168152602001908152602001600020905080600301544210610d45576040517f08c379a0000000000000000000000000000000000000000000000000000000008152600401610d3c90611ca5565b60405180910390fd5b6000339050600360009054906101000a900473ffffffffffffffffffffffffffffffffffffffff1673ffffffffffffffffffffffffffffffffffffffff1663095ea7b382600560648660010154610d9c9190611d70565b610da69190611da1565b8560010154610db59190611dfb565b6040518363ffffffff1660e01b8152600401610dd2929190611a8c565b602060405180830381600087803b158015610dec57600080fd5b505af1158015610e00573d6000803e3d6000fd5b505050506040513d601f19601f82011682018060405250810190610e249190611641565b50600360009054906101000a900473ffffffffffffffffffffffffffffffffffffffff1673ffffffffffffffffffffffffffffffffffffffff1663a9059cbb82600560648660010154610e779190611d70565b610e819190611da1565b8560010154610e909190611dfb565b6040518363ffffffff1660e01b8152600401610ead929190611a8c565b602060405180830381600087803b158015610ec757600080fd5b505af1158015610edb573d6000803e3d6000fd5b505050506040513d601f19601f82011682018060405250810190610eff9190611641565b507fb2aea7c1aa6a8209fd0aaddcc61f8a6932c017c3ab514590fed4ce57a87edb3533600560648560010154610f359190611d70565b610f3f9190611da1565b8460010154610f4e9190611dfb565b846001015442604051610f649493929190611ab5565b60405180910390a1610f8033600161107e90919063ffffffff16565b600460003373ffffffffffffffffffffffffffffffffffffffff1673ffffffffffffffffffffffffffffffffffffffff168152602001908152602001600020600080820160006101000a81549060ff0219169055600182016000905560028201600090556003820160009055600482016000905550505050565b61100261131f565b600073ffffffffffffffffffffffffffffffffffffffff168173ffffffffffffffffffffffffffffffffffffffff161415611072576040517f08c379a000000000000000000000000000000000000000000000000000000000815260040161106990611be5565b60405180910390fd5b61107b8161139d565b50565b6110888282611461565b6110c7576040517f08c379a00000000000000000000000000000000000000000000000000000000081526004016110be90611c85565b60405180910390fd5b600060016110d48461155a565b6110de9190611dfb565b905060008360000160008473ffffffffffffffffffffffffffffffffffffffff1673ffffffffffffffffffffffffffffffffffffffff16815260200190815260200160002054905081811461126557600084600101838154811061116b577f4e487b7100000000000000000000000000000000000000000000000000000000600052603260045260246000fd5b9060005260206000200160009054906101000a900473ffffffffffffffffffffffffffffffffffffffff169050818560000160008373ffffffffffffffffffffffffffffffffffffffff1673ffffffffffffffffffffffffffffffffffffffff168152602001908152602001600020819055508085600101838154811061121b577f4e487b7100000000000000000000000000000000000000000000000000000000600052603260045260246000fd5b9060005260206000200160006101000a81548173ffffffffffffffffffffffffffffffffffffffff021916908373ffffffffffffffffffffffffffffffffffffffff160217905550505b8360000160008473ffffffffffffffffffffffffffffffffffffffff1673ffffffffffffffffffffffffffffffffffffffff16815260200190815260200160002060009055836001018054806112e4577f4e487b7100000000000000000000000000000000000000000000000000000000600052603160045260246000fd5b6001900381819060005260206000200160006101000a81549073ffffffffffffffffffffffffffffffffffffffff0219169055905550505050565b61132761156b565b73ffffffffffffffffffffffffffffffffffffffff166113456107d3565b73ffffffffffffffffffffffffffffffffffffffff161461139b576040517f08c379a000000000000000000000000000000000000000000000000000000000815260040161139290611c45565b60405180910390fd5b565b60008060009054906101000a900473ffffffffffffffffffffffffffffffffffffffff169050816000806101000a81548173ffffffffffffffffffffffffffffffffffffffff021916908373ffffffffffffffffffffffffffffffffffffffff1602179055508173ffffffffffffffffffffffffffffffffffffffff168173ffffffffffffffffffffffffffffffffffffffff167f8be0079c531659141344cd1fd0a4f28419497f9722a3daafe3b4186f6b6457e060405160405180910390a35050565b6000808360010180549050141561147b5760009050611554565b8173ffffffffffffffffffffffffffffffffffffffff16836001018460000160008573ffffffffffffffffffffffffffffffffffffffff1673ffffffffffffffffffffffffffffffffffffffff168152602001908152602001600020548154811061150f577f4e487b7100000000000000000000000000000000000000000000000000000000600052603260045260246000fd5b9060005260206000200160009054906101000a900473ffffffffffffffffffffffffffffffffffffffff1673ffffffffffffffffffffffffffffffffffffffff161490505b92915050565b600081600101805490509050919050565b600033905090565b60008135905061158281611ee2565b92915050565b60008151905061159781611ef9565b92915050565b6000813590506115ac81611f10565b92915050565b6000815190506115c181611f10565b92915050565b6000813590506115d681611f27565b92915050565b6000602082840312156115ee57600080fd5b60006115fc84828501611573565b91505092915050565b6000806040838503121561161857600080fd5b600061162685828601611573565b92505060206116378582860161159d565b9150509250929050565b60006020828403121561165357600080fd5b600061166184828501611588565b91505092915050565b60006020828403121561167c57600080fd5b600061168a8482850161159d565b91505092915050565b6000602082840312156116a557600080fd5b60006116b3848285016115b2565b91505092915050565b600080604083850312156116cf57600080fd5b60006116dd858286016115c7565b92505060206116ee8582860161159d565b9150509250929050565b61170181611e2f565b82525050565b61171081611e2f565b82525050565b61171f81611e41565b82525050565b6000611732602683611d09565b91507f4f776e61626c653a206e6577206f776e657220697320746865207a65726f206160008301527f64647265737300000000000000000000000000000000000000000000000000006020830152604082019050919050565b6000611798602a83611d09565b91507f35303033207c205769746864726177616c2074696d6520686173206e6f74206560008301527f78706972656420796574000000000000000000000000000000000000000000006020830152604082019050919050565b60006117fe602583611d09565b91507f35303034207c20506c616e2073656c6563746564206973206f7574206f66207260008301527f616e67652e0000000000000000000000000000000000000000000000000000006020830152604082019050919050565b6000611864602083611d09565b91507f4f776e61626c653a2063616c6c6572206973206e6f7420746865206f776e65726000830152602082019050919050565b60006118a4602b83611d09565b91507f34303031207c20596f752061726520616c72656164792061207265676973746560008301527f726564207374616b65722e0000000000000000000000000000000000000000006020830152604082019050919050565b600061190a602f83611d09565b91507f35303031207c20546869732061646472657373206973206e6f7420612072656760008301527f69737465726564207374616b65722e00000000000000000000000000000000006020830152604082019050919050565b6000611970606483611d09565b91507f35303032207c20596f757220736176696e6773207465726d206861732065786960008301527f707265642c20706c65617365207769746864726177207468652066756e64732060208301527f7573696e6720746865202777697468647261774465706f736974272066756e6360408301527f74696f6e000000000000000000000000000000000000000000000000000000006060830152608082019050919050565b8082525050565b611a2581611e6d565b82525050565b611a3481611e77565b82525050565b6000602082019050611a4f60008301846116f8565b92915050565b6000606082019050611a6a60008301866116f8565b611a7760208301856116f8565b611a846040830184611a1c565b949350505050565b6000604082019050611aa160008301856116f8565b611aae6020830184611a1c565b9392505050565b6000608082019050611aca60008301876116f8565b611ad76020830186611a1c565b611ae46040830185611a1c565b611af16060830184611a1c565b95945050505050565b600060e082019050611b0f600083018a6116f8565b611b1c6020830189611a1c565b611b296040830188611a2b565b611b366060830187611a1c565b611b436080830186611a1c565b611b5060a0830185611a1c565b611b5d60c0830184611a1c565b98975050505050505050565b600060c082019050611b7e60008301896116f8565b611b8b6020830188611a2b565b611b986040830187611a1c565b611ba56060830186611a1c565b611bb26080830185611a1c565b611bbf60a0830184611a1c565b979650505050505050565b6000602082019050611bdf6000830184611716565b92915050565b60006020820190508181036000830152611bfe81611725565b9050919050565b60006020820190508181036000830152611c1e8161178b565b9050919050565b60006020820190508181036000830152611c3e816117f1565b9050919050565b60006020820190508181036000830152611c5e81611857565b9050919050565b60006020820190508181036000830152611c7e81611897565b9050919050565b60006020820190508181036000830152611c9e816118fd565b9050919050565b60006020820190508181036000830152611cbe81611963565b9050919050565b6000604082019050611cda6000830185611a15565b611ce76020830184611707565b9392505050565b6000602082019050611d036000830184611a1c565b92915050565b600082825260208201905092915050565b6000611d2582611e6d565b9150611d3083611e6d565b9250827fffffffffffffffffffffffffffffffffffffffffffffffffffffffffffffffff03821115611d6557611d64611e84565b5b828201905092915050565b6000611d7b82611e6d565b9150611d8683611e6d565b925082611d9657611d95611eb3565b5b828204905092915050565b6000611dac82611e6d565b9150611db783611e6d565b9250817fffffffffffffffffffffffffffffffffffffffffffffffffffffffffffffffff0483118215151615611df057611def611e84565b5b828202905092915050565b6000611e0682611e6d565b9150611e1183611e6d565b925082821015611e2457611e23611e84565b5b828203905092915050565b6000611e3a82611e4d565b9050919050565b60008115159050919050565b600073ffffffffffffffffffffffffffffffffffffffff82169050919050565b6000819050919050565b600060ff82169050919050565b7f4e487b7100000000000000000000000000000000000000000000000000000000600052601160045260246000fd5b7f4e487b7100000000000000000000000000000000000000000000000000000000600052601260045260246000fd5b611eeb81611e2f565b8114611ef657600080fd5b50565b611f0281611e41565b8114611f0d57600080fd5b50565b611f1981611e6d565b8114611f2457600080fd5b50565b611f3081611e77565b8114611f3b57600080fd5b5056fea26469706673582212201f271abb4c744c421113d538b2536f2ba8e2964653e15c2f2356e4fbdcdf25dd64736f6c63430008000033",
  "immutableReferences": {},
  "source": "// SPDX-License-Identifier: UNLICNESED\npragma solidity 0.8.0;\n\nimport \"@openzeppelin/contracts/access/Ownable.sol\"; // @dev Library for setting ownership\nimport \"@openzeppelin/contracts/token/ERC20/ERC20.sol\";\nimport \"@openzeppelin/contracts/utils/Context.sol\";\nimport \"@openzeppelin/contracts/token/ERC20/IERC20.sol\";\n/**\n * @notice Key sets with enumeration and delete. Uses mappings for random\n * and existence checks and dynamic arrays for enumeration. Key uniqueness is enforced. \n * @dev Sets are unordered. Delete operations reorder keys. All operations have a \n * fixed gas cost at any scale, O(1). \n * author: Rob Hitchens\n */\n\nlibrary AddressSet {\n    \n    struct Set {\n        mapping(address => uint) keyPointers; // @dev UserStruct\n        address[] keyList; // @dev UserIndex\n    }\n\n\n    /**\n     * @notice insert a key. \n     * @dev duplicate keys are not permitted.\n     * @param self storage pointer to a Set. \n     * @param key value to insert.\n     */    \n    function insert(Set storage self, address key) public {\n        require(!exists(self, key), \"4001 | This address is already a registered staker.\");\n        self.keyPointers[key] = self.keyList.length;\n        self.keyList.push(key);\n    }\n\n    /**\n     * @notice remove a key.\n     * @dev key to remove must exist. \n     * @param self storage pointer to a Set.\n     * @param key value to remove.\n     */    \n    function remove(Set storage self, address key) internal {\n        require(exists(self, key), \"5001 | This address is not a registered staker.\");\n        uint last = count(self) - 1;\n        uint rowToReplace = self.keyPointers[key];\n        if(rowToReplace != last) {\n            address keyToMove = self.keyList[last];\n            self.keyPointers[keyToMove] = rowToReplace;\n            self.keyList[rowToReplace] = keyToMove;\n        }\n        delete self.keyPointers[key];\n       self.keyList.pop();\n    }\n\n    /**\n     * @notice check if a key is in the Set.\n     * @param self storage pointer to a Set.\n     * @param key value to check. \n     * @return bool true: Set member, false: not a Set member.\n     */  \n    function exists(Set storage self, address key) internal view returns(bool) {\n        if(self.keyList.length == 0) return false;\n        return self.keyList[self.keyPointers[key]] == key;\n    }\n      function count(Set storage self) internal view returns(uint) {\n        return(self.keyList.length);\n    }\n}\n\ncontract SavingsToken is Context, ERC20 {\n    constructor() ERC20(\"StakeApp Token\", \"SAT\") {\n        _mint(msg.sender, 100000000 * 10 ** 18);         //adjust the first number to adjust totalSupply\n    }\n\n}\n\ncontract TermSavings is Ownable{\n\n    // @dev Defining the use for AddressSet library\n\n    using AddressSet for AddressSet.Set;\n    AddressSet.Set depositSet;\n\n    IERC20 private _token;\n\n  constructor (IERC20 token)  {\n        _token = token;\n    }\n\n    struct DepositStruct {\n        uint8 plan;\n        uint256 value;                  // @dev struct used for user info here is all information execpt unique ID\n        uint256 depositTime;            \n        uint256 withdrawalTime;         \n        uint256 totalIntrest;\n    }\n\n    mapping(address => DepositStruct) deposits; // @dev used for saving the unique ID which will be the address of the user\n   \n    // @dev defining events which are used for front-end feedback\n\n    event LogNewDeposit(address sender, uint8 plan, uint256 depositedValue, uint256 depositTime, uint256 withdrawalTime, uint256 totalIntrest);\n    event LogRemDeposit(address sender,uint256 withdrawnValue,uint256 depositedValue, uint256 time);\n    event LogWthDeposit(address sender, uint256 depositedValue, uint256 totalIntrest, uint256 time);\n    event LogGetDeposit(address sender,  uint256 depositedValue, uint8 plan, uint256 depositTime, uint256 withdrawalTime,uint256 totalIntrest,  uint256 time);\n    event LogOwnerDeposit(address sender, uint256 fundedValue);\n    event LogOwnerWithdraw(address sender, uint256 withdrawnValue);\n    \n    // @dev a helper function for checking if the address is already a registered staker\n\n    function isStaker () public view returns (bool)  {\n        require(depositSet.exists(msg.sender), \"5001 | This address is not a registered staker.\");\n        return true;\n    }\n\n    // @dev a helper function for returning the contract balance\n\n     function getBalance  () external view returns (uint256) {\n        return _token.balanceOf(address(this)); // balance of the smart contract\n    } \n    \n    // @dev function for starting new savings\n    // @params _plan for choosing the savings plan (1,2,3)\n\n    function newDeposit(uint8 _plan, uint256 _amount) external {\n        require (_plan == 1 || _plan == 2 || _plan == 3, \"5004 | Plan selected is out of range.\"); \n        require(!depositSet.exists(msg.sender), \"4001 | You are already a registered staker.\");\n        \n        _token.transferFrom(msg.sender, address(this), _amount);\n\n        depositSet.insert(msg.sender); \n        DepositStruct storage d = deposits[msg.sender];\n        \n        d.plan = _plan;\n\n        d.depositTime = block.timestamp;\n                \n        d.value = _amount;\n        \n        if (_plan == 1) {\n            d.withdrawalTime = block.timestamp + 60;//7889229; // 3 months, 7889229 UNIX TIMESTAMP {production value}, this value can be changed\n            d.totalIntrest = d.value + ((d.value / 100) * 3);   // to demonstrate the withdrawDeposit function, set this to few seconds    \n        }\n        else if (_plan == 2) {\n            d.withdrawalTime = block.timestamp + 120;//15778458; // 6 months, 15778458 UNIX TIMESTAMP {production value} this value can be changed\n            d.totalIntrest = d.value + ((d.value / 100) * 6); // to demonstrate the withdrawDeposit function, set this to few seconds\n        }\n        else if (_plan == 3) {\n            d.withdrawalTime = block.timestamp + 180;//31556916; // 9 months, 31556916 UNIX TIMESTAMP {production value} this value can be changed\n            d.totalIntrest = d.value + ((d.value / 100) * 9); // to demonstrate the withdrawDeposit function, set this to few seconds\n        }\n        emit LogNewDeposit(msg.sender, _plan, d.value, d.depositTime, d.withdrawalTime, d.totalIntrest);\n    }\n    \n    // @dev a function for terminating savings early\n\n    function stopSavings() external  {\n        \n        isStaker();\n        \n        DepositStruct storage d = deposits[msg.sender];\n        \n        require(block.timestamp < d.withdrawalTime, \"5002 | Your savings term has exipred, please withdraw the funds using the 'withdrawDeposit' function\");\n       \n        address reciver = msg.sender;\n\n        _token.approve(reciver, d.value - ((d.value/100) * 5));\n        _token.transfer(reciver, d.value - ((d.value/100) * 5));\n              \n        emit LogRemDeposit(msg.sender, d.value - ((d.value/100) * 5), d.value, block.timestamp );\n\n        depositSet.remove(msg.sender); \n        delete deposits[msg.sender];\n    }\n    \n    // @dev function for getting the savings details\n\n    function getDeposit() external  {\n        \n        isStaker();\n       \n        DepositStruct storage d = deposits[msg.sender];\n   \n        emit LogGetDeposit(msg.sender, d.value, d.plan, d.depositTime, d.withdrawalTime, d.totalIntrest,  block.timestamp);\n    }\n    \n    // @dev function for withdrawing the savings after the term has expired\n\n    function withdrawDeposit()  external {\n        isStaker();\n   \n        DepositStruct storage d = deposits[msg.sender];\n  \n        require(block.timestamp > d.withdrawalTime , \"5003 | Withdrawal time has not expired yet\");\n\n        address reciver = msg.sender;\n\n        _token.approve(reciver, d.totalIntrest);\n        _token.transfer(reciver, d.totalIntrest);\n            \n        emit LogWthDeposit(msg.sender,d.value, d.totalIntrest,  block.timestamp);\n            \n        depositSet.remove(msg.sender); // This will fail automatically if the key doesn't exist\n        delete deposits[msg.sender];        \n    }\n\n     function withdrawContractFunds (address  _reciver, uint256 _value) external onlyOwner {\n        \n        _token.approve(_reciver, _value);\n        _token.transfer(_reciver, _value);\n\n        emit LogOwnerWithdraw(_reciver, _value);\n    }\n    function fundContract(uint256 _amount) external  onlyOwner {\n\n        _token.transferFrom(msg.sender,address(this), _amount);\n\n        emit LogOwnerDeposit(msg.sender, _amount);\n    }\n    \n         \n}\n\ncontract IndefiniteSavings is Ownable{\n \n    // @dev defining a use for AddressSet library\n\n    using AddressSet for AddressSet.Set;\n    AddressSet.Set depositSet;\n\n    IERC20 private _token;\n    uint256 giveawayPool;\n\n\n    constructor (IERC20 token)  {\n        _token = token;\n    }\n  \n    struct DepositStruct {\n        uint256 value;                  // @dev struct for storing staker data\n        uint256 depositTime;\n    }\n\n    mapping(address => DepositStruct) deposits; // @dev a mapping for storing the address's as the IDs/keys\n\n    // @dev helper function to get the contract\n\n    function getBalance  () external view returns (uint256) {\n       return _token.balanceOf(address(this)); \n    }\n    function getGiveawayPool () external view returns (uint256) {\n        return giveawayPool;\n    }\n\n    // @dev a helper function for checking if the address is already a registered staker\n\n    function isStaker () public view returns(bool) {\n        require(depositSet.exists(msg.sender), \"5001 | This address is not a registered staker.\");\n        return true;\n    }\n\n    // @dev defining events\n\n    event LogWthDeposit (address sender,  uint256 depositedValue,uint256 totalIntrest, uint256 time);\n    event LogNewDeposit (address sender,  uint256 depositedValue, uint256 depositTime);\n    event LogGetDeposit(address sender,  uint256 depositedValue, uint256 depositTime, uint256 time);\n    event LogOwnerDeposit(address sender, uint256 fundedValue);\n    event LogOwnerWithdraw(address sender, uint256 withdrawnValue);\n    event LogGiveaway(address sender, uint256 giveawayValue);\n    event LogFundGiveaway(address sender, uint256 giveawayFunds);\n    event LogWithdrawGiveaway(address sender, uint256 giveawayAmount);\n    // @dev function for starting new savings\n\n    function newDeposit(uint256 _amount) external  {\n       \n        require(!depositSet.exists(msg.sender), \"4001 | You are already a registered staker.\");\n\n        _token.transferFrom(msg.sender,address(this), _amount);\n\n        depositSet.insert(msg.sender); // Note that this will fail automatically if the key already exists.\n       \n        DepositStruct storage d = deposits[msg.sender];\n       \n        d.value = _amount;\n        d.depositTime = block.timestamp;\n       \n        emit LogNewDeposit(msg.sender, d.value, d.depositTime); \n    }\n    function getDeposit()  external  {\n        \n        isStaker();\n               \n        DepositStruct storage d = deposits[msg.sender];\n       \n        emit LogGetDeposit(msg.sender, d.value, d.depositTime, block.timestamp);\n    }\n    function withdrawDeposit() external  {\n\n        isStaker();\n        \n        DepositStruct storage d = deposits[msg.sender];\n        \n        uint256 totalIntrest = d.value + ((block.timestamp - d.depositTime) * ( (d.value / 100) / 2629743)); // @dev calculating total amount for payout, intrest per second\n        \n        uint256 time = block.timestamp;\n     \n        address reciver = msg.sender;\n        _token.approve(reciver, totalIntrest);\n        _token.transfer(reciver, totalIntrest);\n        \n        emit LogWthDeposit (msg.sender, d.value, totalIntrest, time);\n        \n        depositSet.remove(msg.sender);\n        delete deposits[msg.sender];   \n    }\n\n    function withdrawContractFunds (address _reciver, uint256 _value) external  onlyOwner {\n    \n        _token.approve(_reciver, _value);\n        _token.transfer(_reciver, _value);\n        \n        emit LogOwnerWithdraw(_reciver, _value);\n    }\n    function fundContract(uint256 _amount) external  onlyOwner {\n    \n        _token.transferFrom(msg.sender,address(this), _amount);\n        emit LogOwnerDeposit(msg.sender, _amount);       \n    }\n    function giveaway() external {\n        require(giveawayPool >100000000000000000000, \"9005 | No funds in giveaway pool\" );\n        address reciver = msg.sender;\n        _token.approve(reciver,100000000000000000000 );\n        _token.transfer(reciver,100000000000000000000);\n        giveawayPool = giveawayPool - 100000000000000000000;\n\n        emit LogGiveaway(msg.sender, 100000000000000000000);\n    }\n    function fundGiveaway() external onlyOwner {\n        _token.transferFrom(msg.sender, address(this), 10000000000000000000000);\n        giveawayPool = giveawayPool + 10000000000000000000000;\n\n        emit LogFundGiveaway(msg.sender, giveawayPool);\n    }\n    function withdrawGiveaway() external onlyOwner {\n        _token.approve(msg.sender, giveawayPool);\n        _token.transfer(msg.sender, giveawayPool);\n        uint256 withdrawn = giveawayPool;\n        giveawayPool = 0;\n        \n        emit LogWithdrawGiveaway(msg.sender, withdrawn);\n    }\n}",
  "sourcePath": "C:/Users/pavic/Desktop/Goerli redesign/savingsGoerli/truffle/contracts/Savings.sol",
  "compiler": {
    "name": "solc",
    "version": "0.8.0+commit.c7dfd78e.Emscripten.clang"
  },
  "schemaVersion": "3.2.3",
  "updatedAt": "2022-07-25T15:34:24.971Z",
  "devdoc": {
    "kind": "dev",
    "methods": {
      "owner()": {
        "details": "Returns the address of the current owner."
      },
      "renounceOwnership()": {
        "details": "Leaves the contract without owner. It will not be possible to call `onlyOwner` functions anymore. Can only be called by the current owner. NOTE: Renouncing ownership will leave the contract without an owner, thereby removing any functionality that is only available to the owner."
      },
      "transferOwnership(address)": {
        "details": "Transfers ownership of the contract to a new account (`newOwner`). Can only be called by the current owner."
      }
    },
    "version": 1
  },
  "userdoc": {
    "kind": "user",
    "methods": {},
    "version": 1
  }
}